:1000000090007CD200C2017533007534297532002E
:100010007C0B7B19113A114FDBFADCF630001930FA
:10002000010C1532E532B4FF03753229800A05321E
:10003000E532B42A0375320080D6208007B2001161
:100040004F3080FB208107B201114F3081FB22A984
:10005000327590007530807531007A10E993F5A003
:100060008530B08531900009C3E53013F530E531B6
:1000700013F53175B000759000DAE122FFFFFFFF44
:10008000FFFFFFFFFFFFFFFFFFFFFFFFFEFDFBF78F
:10009000AF9F8FFF8F8F8FF9F9BE80BEFF80FEFE6E
:1000A000C3FBC3FFFFFFFFFFFFFFFFFFFFFFFFFFDC
:0C00B000FFFFFFFFFFFFFFFFFFFFFFFF50
:00000001FF
